{
  "contractName": "TodoList",
  "abi": [
    {
      "inputs": [],
      "name": "todoCount",
      "outputs": [
        {
          "internalType": "uint256",
          "name": "",
          "type": "uint256"
        }
      ],
      "stateMutability": "view",
      "type": "function",
      "constant": true
    },
    {
      "inputs": [
        {
          "internalType": "uint256",
          "name": "",
          "type": "uint256"
        }
      ],
      "name": "todos",
      "outputs": [
        {
          "internalType": "address",
          "name": "owner",
          "type": "address"
        },
        {
          "internalType": "string",
          "name": "name",
          "type": "string"
        },
        {
          "internalType": "bool",
          "name": "completed",
          "type": "bool"
        }
      ],
      "stateMutability": "view",
      "type": "function",
      "constant": true
    },
    {
      "inputs": [],
      "name": "getTodoList",
      "outputs": [
        {
          "components": [
            {
              "internalType": "address",
              "name": "owner",
              "type": "address"
            },
            {
              "internalType": "string",
              "name": "name",
              "type": "string"
            },
            {
              "internalType": "bool",
              "name": "completed",
              "type": "bool"
            }
          ],
          "internalType": "struct TodoList.Todo[]",
          "name": "",
          "type": "tuple[]"
        }
      ],
      "stateMutability": "view",
      "type": "function",
      "constant": true
    },
    {
      "inputs": [
        {
          "internalType": "string",
          "name": "name",
          "type": "string"
        }
      ],
      "name": "addTodo",
      "outputs": [],
      "stateMutability": "nonpayable",
      "type": "function"
    },
    {
      "inputs": [
        {
          "internalType": "uint256",
          "name": "index",
          "type": "uint256"
        }
      ],
      "name": "completeTodo",
      "outputs": [],
      "stateMutability": "nonpayable",
      "type": "function"
    }
  ],
  "bytecode": "0x608060405234801561001057600080fd5b50610d0d806100206000396000f3fe608060405234801561001057600080fd5b50600436106100575760003560e01c80630c7a16be1461005c57806320fe21441461007a57806395ffebf514610096578063bc8bc2b4146100b2578063fe0dee17146100e4575b600080fd5b610064610102565b6040516100719190610856565b60405180910390f35b610094600480360381019061008f91906108c2565b6102ca565b005b6100b060048036038101906100ab9190610a24565b6103a5565b005b6100cc60048036038101906100c791906108c2565b61048e565b6040516100db93929190610ad5565b60405180910390f35b6100ec61056d565b6040516100f99190610b22565b60405180910390f35b60606000805467ffffffffffffffff811115610121576101206108f9565b5b60405190808252806020026020018201604052801561015a57816020015b610147610573565b81526020019060019003908161013f5790505b50905060005b6000548110156102c2576000600160008381526020019081526020016000209050806040518060600160405290816000820160009054906101000a900473ffffffffffffffffffffffffffffffffffffffff1673ffffffffffffffffffffffffffffffffffffffff1673ffffffffffffffffffffffffffffffffffffffff1681526020016001820180546101f390610b6c565b80601f016020809104026020016040519081016040528092919081815260200182805461021f90610b6c565b801561026c5780601f106102415761010080835404028352916020019161026c565b820191906000526020600020905b81548152906001019060200180831161024f57829003601f168201915b505050505081526020016002820160009054906101000a900460ff1615151515815250508383815181106102a3576102a2610b9e565b5b60200260200101819052505080806102ba90610bfc565b915050610160565b508091505090565b60006001600083815260200190815260200160002060000160009054906101000a900473ffffffffffffffffffffffffffffffffffffffff1690508073ffffffffffffffffffffffffffffffffffffffff163373ffffffffffffffffffffffffffffffffffffffff1614610373576040517f08c379a000000000000000000000000000000000000000000000000000000000815260040161036a90610cb7565b60405180910390fd5b600180600084815260200190815260200160002060020160006101000a81548160ff0219169083151502179055505050565b6000808154809291906103b790610bfc565b919050555060405180606001604052803373ffffffffffffffffffffffffffffffffffffffff16815260200182815260200160001515815250600160008054815260200190815260200160002060008201518160000160006101000a81548173ffffffffffffffffffffffffffffffffffffffff021916908373ffffffffffffffffffffffffffffffffffffffff16021790555060208201518160010190805190602001906104679291906105ac565b5060408201518160020160006101000a81548160ff02191690831515021790555090505050565b60016020528060005260406000206000915090508060000160009054906101000a900473ffffffffffffffffffffffffffffffffffffffff16908060010180546104d790610b6c565b80601f016020809104026020016040519081016040528092919081815260200182805461050390610b6c565b80156105505780601f1061052557610100808354040283529160200191610550565b820191906000526020600020905b81548152906001019060200180831161053357829003601f168201915b5050505050908060020160009054906101000a900460ff16905083565b60005481565b6040518060600160405280600073ffffffffffffffffffffffffffffffffffffffff168152602001606081526020016000151581525090565b8280546105b890610b6c565b90600052602060002090601f0160209004810192826105da5760008555610621565b82601f106105f357805160ff1916838001178555610621565b82800160010185558215610621579182015b82811115610620578251825591602001919060010190610605565b5b50905061062e9190610632565b5090565b5b8082111561064b576000816000905550600101610633565b5090565b600081519050919050565b600082825260208201905092915050565b6000819050602082019050919050565b600073ffffffffffffffffffffffffffffffffffffffff82169050919050565b60006106a68261067b565b9050919050565b6106b68161069b565b82525050565b600081519050919050565b600082825260208201905092915050565b60005b838110156106f65780820151818401526020810190506106db565b83811115610705576000848401525b50505050565b6000601f19601f8301169050919050565b6000610727826106bc565b61073181856106c7565b93506107418185602086016106d8565b61074a8161070b565b840191505092915050565b60008115159050919050565b61076a81610755565b82525050565b600060608301600083015161078860008601826106ad565b50602083015184820360208601526107a0828261071c565b91505060408301516107b56040860182610761565b508091505092915050565b60006107cc8383610770565b905092915050565b6000602082019050919050565b60006107ec8261064f565b6107f6818561065a565b9350836020820285016108088561066b565b8060005b85811015610844578484038952815161082585826107c0565b9450610830836107d4565b925060208a0199505060018101905061080c565b50829750879550505050505092915050565b6000602082019050818103600083015261087081846107e1565b905092915050565b6000604051905090565b600080fd5b600080fd5b6000819050919050565b61089f8161088c565b81146108aa57600080fd5b50565b6000813590506108bc81610896565b92915050565b6000602082840312156108d8576108d7610882565b5b60006108e6848285016108ad565b91505092915050565b600080fd5b600080fd5b7f4e487b7100000000000000000000000000000000000000000000000000000000600052604160045260246000fd5b6109318261070b565b810181811067ffffffffffffffff821117156109505761094f6108f9565b5b80604052505050565b6000610963610878565b905061096f8282610928565b919050565b600067ffffffffffffffff82111561098f5761098e6108f9565b5b6109988261070b565b9050602081019050919050565b82818337600083830152505050565b60006109c76109c284610974565b610959565b9050828152602081018484840111156109e3576109e26108f4565b5b6109ee8482856109a5565b509392505050565b600082601f830112610a0b57610a0a6108ef565b5b8135610a1b8482602086016109b4565b91505092915050565b600060208284031215610a3a57610a39610882565b5b600082013567ffffffffffffffff811115610a5857610a57610887565b5b610a64848285016109f6565b91505092915050565b610a768161069b565b82525050565b600082825260208201905092915050565b6000610a98826106bc565b610aa28185610a7c565b9350610ab28185602086016106d8565b610abb8161070b565b840191505092915050565b610acf81610755565b82525050565b6000606082019050610aea6000830186610a6d565b8181036020830152610afc8185610a8d565b9050610b0b6040830184610ac6565b949350505050565b610b1c8161088c565b82525050565b6000602082019050610b376000830184610b13565b92915050565b7f4e487b7100000000000000000000000000000000000000000000000000000000600052602260045260246000fd5b60006002820490506001821680610b8457607f821691505b60208210811415610b9857610b97610b3d565b5b50919050565b7f4e487b7100000000000000000000000000000000000000000000000000000000600052603260045260246000fd5b7f4e487b7100000000000000000000000000000000000000000000000000000000600052601160045260246000fd5b6000610c078261088c565b91507fffffffffffffffffffffffffffffffffffffffffffffffffffffffffffffffff821415610c3a57610c39610bcd565b5b600182019050919050565b7f4f6e6c7920746865206f776e65722063616e20636f6d706c657465207468652060008201527f7461736b00000000000000000000000000000000000000000000000000000000602082015250565b6000610ca1602483610a7c565b9150610cac82610c45565b604082019050919050565b60006020820190508181036000830152610cd081610c94565b905091905056fea26469706673582212204590b37f3f3913682ea7b91dd0710674b36a513f704bc7683f49177ae2a1bbaa64736f6c63430008090033",
  "immutableReferences": {},
  "source": "// SPDX-License-Identifier: MIT\r\npragma solidity >=0.8.0 <0.9.0;\r\n\r\ncontract TodoList {\r\n  uint256 public todoCount;\r\n\r\n  struct Todo {\r\n    address owner;\r\n    string name;\r\n    bool completed;\r\n  }\r\n\r\n  mapping(uint256 => Todo) public todos;\r\n\r\n  function getTodoList() public view returns (Todo[] memory) {\r\n    Todo[] memory todoList = new Todo[](todoCount);\r\n\r\n    for (uint i = 0; i < todoCount; i++) {\r\n      Todo storage todo = todos[i];\r\n      todoList[i] = todo;\r\n    }\r\n\r\n    return todoList;\r\n  }\r\n\r\n  function addTodo(string memory name) public {\r\n    todoCount++;\r\n    todos[todoCount] = Todo(msg.sender, name, false);\r\n  }\r\n\r\n  function completeTodo(uint256 index) public {\r\n    address todoOwner = todos[index].owner;\r\n    require(msg.sender == todoOwner, \"Only the owner can complete the task\");\r\n    todos[index].completed = true;\r\n  }\r\n}",
  "sourcePath": "C:\\Users\\Doc\\Desktop\\react-solidity-app\\smart_contracts\\contracts\\TodoList.sol",
  "compiler": {
    "name": "solc",
    "version": "0.8.9+commit.e5eed63a.Emscripten.clang"
  },
  "schemaVersion": "3.4.3",
  "updatedAt": "2021-10-24T16:18:14.742Z",
  "networkType": "ethereum",
  "devdoc": {
    "kind": "dev",
    "methods": {},
    "version": 1
  },
  "userdoc": {
    "kind": "user",
    "methods": {},
    "version": 1
  }
}